{
    "contractName": "Bank",
    "abi": [
        {
            "inputs": [],
            "stateMutability": "nonpayable",
            "type": "constructor"
        },
        {
            "inputs": [],
            "name": "admin",
            "outputs": [
                {
                    "internalType": "address",
                    "name": "",
                    "type": "address"
                }
            ],
            "stateMutability": "view",
            "type": "function"
        },
        {
            "inputs": [
                {
                    "internalType": "address",
                    "name": "",
                    "type": "address"
                }
            ],
            "name": "balances",
            "outputs": [
                {
                    "internalType": "uint256",
                    "name": "",
                    "type": "uint256"
                }
            ],
            "stateMutability": "view",
            "type": "function"
        },
        {
            "inputs": [],
            "name": "deposit",
            "outputs": [],
            "stateMutability": "payable",
            "type": "function"
        },
        {
            "inputs": [
                {
                    "internalType": "uint256",
                    "name": "",
                    "type": "uint256"
                }
            ],
            "name": "topThree",
            "outputs": [
                {
                    "internalType": "address",
                    "name": "",
                    "type": "address"
                }
            ],
            "stateMutability": "view",
            "type": "function"
        },
        {
            "inputs": [],
            "name": "withdraw",
            "outputs": [],
            "stateMutability": "payable",
            "type": "function"
        }
    ],
    "bytecode": "608060405234801561001057600080fd5b50600080546001600160a01b03191633179055610335806100326000396000f3fe60806040526004361061004a5760003560e01c806325a175451461004f57806327e235e31461008c5780633ccfd60b146100c7578063d0e30db0146100d1578063f851a440146100d9575b600080fd5b34801561005b57600080fd5b5061006f61006a36600461028f565b6100f9565b6040516001600160a01b0390911681526020015b60405180910390f35b34801561009857600080fd5b506100b96100a73660046102a8565b60016020526000908152604090205481565b604051908152602001610083565b6100cf610123565b005b6100cf61020f565b3480156100e557600080fd5b5060005461006f906001600160a01b031681565b6002818154811061010957600080fd5b6000918252602090912001546001600160a01b0316905081565b47806101815760405162461bcd60e51b815260206004820152602260248201527f4e6f2062616c616e636520617661696c61626c6520666f722077686974686472604482015261617760f01b60648201526084015b60405180910390fd5b604051600090339083908381818185875af1925050503d80600081146101c3576040519150601f19603f3d011682016040523d82523d6000602084013e6101c8565b606091505b505090508061020b5760405162461bcd60e51b815260206004820152600f60248201526e15da5d1a191c985dc819985a5b1959608a1b6044820152606401610178565b5050565b600034116102695760405162461bcd60e51b815260206004820152602160248201527f4465706f7369742076616c7565206d7573742067726561746572207468616e206044820152600360fc1b6064820152608401610178565b33600090815260016020526040812080543492906102889084906102d8565b9091555050565b6000602082840312156102a157600080fd5b5035919050565b6000602082840312156102ba57600080fd5b81356001600160a01b03811681146102d157600080fd5b9392505050565b808201808211156102f957634e487b7160e01b600052601160045260246000fd5b9291505056fea26469706673582212201cac3c4fcb5505e60263277c2b400de647594a273df8007cf32a158a8c191e7e64736f6c63430008130033",
    "sourcePath": "/Users/leacent/Desktop/web3/web3-demo/bank.sol",
    "compiler": {
        "name": "solc",
        "version": "0.8.19+commit.7dd6d404"
    },
    "functionHashes": {
        "admin()": "f851a440",
        "balances(address)": "27e235e3",
        "deposit()": "d0e30db0",
        "topThree(uint256)": "25a17545",
        "withdraw()": "3ccfd60b"
    },
    "gasEstimates": {
        "creation": {
            "codeDepositCost": "164200",
            "executionCost": "24443",
            "totalCost": "188643"
        },
        "external": {
            "admin()": "2392",
            "balances(address)": "2484",
            "deposit()": "24556",
            "topThree(uint256)": "4581",
            "withdraw()": "infinite"
        }
    }
}