{
    "contractName": "Counter",
    "abi": [
        {
            "inputs": [],
            "stateMutability": "nonpayable",
            "type": "constructor"
        },
        {
            "inputs": [
                {
                    "internalType": "uint256",
                    "name": "x",
                    "type": "uint256"
                }
            ],
            "name": "add",
            "outputs": [],
            "stateMutability": "nonpayable",
            "type": "function"
        },
        {
            "inputs": [],
            "name": "count",
            "outputs": [
                {
                    "internalType": "uint256",
                    "name": "",
                    "type": "uint256"
                }
            ],
            "stateMutability": "view",
            "type": "function"
        }
    ],
    "bytecode": "608060405234801561001057600080fd5b506000805560ed806100236000396000f3fe6080604052348015600f57600080fd5b506004361060325760003560e01c806306661abd1460375780631003e2d2146051575b600080fd5b603f60005481565b60405190815260200160405180910390f35b6060605c3660046079565b6062565b005b80600080828254607191906091565b909155505050565b600060208284031215608a57600080fd5b5035919050565b8082018082111560b157634e487b7160e01b600052601160045260246000fd5b9291505056fea26469706673582212200f795a1c899e30b2227ee8e243b71b0cae7e39e22c2452162268af2dae48ef2464736f6c63430008130033",
    "sourcePath": "/Users/leacent/Desktop/web3/web3-demo/counter.sol",
    "compiler": {
        "name": "solc",
        "version": "0.8.19+commit.7dd6d404"
    },
    "functionHashes": {
        "add(uint256)": "1003e2d2",
        "count()": "06661abd"
    },
    "gasEstimates": {
        "creation": {
            "codeDepositCost": "47400",
            "executionCost": "5105",
            "totalCost": "52505"
        },
        "external": {
            "add(uint256)": "24523",
            "count()": "2261"
        }
    }
}