{
    "contractName": "Bank",
    "abi": [
        {
            "anonymous": false,
            "inputs": [
                {
                    "indexed": true,
                    "internalType": "address",
                    "name": "depositor",
                    "type": "address"
                },
                {
                    "indexed": false,
                    "internalType": "uint256",
                    "name": "amount",
                    "type": "uint256"
                }
            ],
            "name": "Deposit",
            "type": "event"
        },
        {
            "anonymous": false,
            "inputs": [
                {
                    "indexed": true,
                    "internalType": "address",
                    "name": "recipient",
                    "type": "address"
                },
                {
                    "indexed": false,
                    "internalType": "uint256",
                    "name": "amount",
                    "type": "uint256"
                }
            ],
            "name": "Withdraw",
            "type": "event"
        },
        {
            "inputs": [],
            "name": "balance",
            "outputs": [
                {
                    "internalType": "uint256",
                    "name": "",
                    "type": "uint256"
                }
            ],
            "stateMutability": "view",
            "type": "function"
        },
        {
            "inputs": [],
            "name": "deposit",
            "outputs": [],
            "stateMutability": "payable",
            "type": "function"
        }
    ],
    "bytecode": "608060405234801561001057600080fd5b5061016c806100206000396000f3fe6080604052600436106100295760003560e01c8063b69ef8a81461002e578063d0e30db014610056575b600080fd5b34801561003a57600080fd5b5061004460005481565b60405190815260200160405180910390f35b61005e610060565b005b600034116100c25760405162461bcd60e51b815260206004820152602560248201527f4465706f73697420616d6f756e74206d75737420626520677265617465722074604482015264068616e20360dc1b606482015260840160405180910390fd5b346000808282546100d3919061010f565b909155505060405134815233907fe1fffcc4923d04b559f4d29a8bfc6cda04eb5b0d3c460751c2402c5c5cc9109c9060200160405180910390a2565b8082018082111561013057634e487b7160e01b600052601160045260246000fd5b9291505056fea264697066735822122080012991e1c584663c27748ab2388e6a0da1fd95db9c6b1498d8154ff1c08c0d64736f6c63430008130033",
    "sourcePath": "/Users/leacent/Desktop/web3/mybank/src/Bank.sol",
    "compiler": {
        "name": "solc",
        "version": "0.8.19+commit.7dd6d404"
    },
    "functionHashes": {
        "balance()": "b69ef8a8",
        "deposit()": "d0e30db0"
    },
    "gasEstimates": {
        "creation": {
            "codeDepositCost": "72800",
            "executionCost": "123",
            "totalCost": "72923"
        },
        "external": {
            "balance()": "2261",
            "deposit()": "25877"
        }
    }
}